:040000008031122811
:100008007E14803120007F082100EB0081316721B8
:1000180021006B082000FF007E10090080311428A1
:100028002100E001E101E201E301E401E501A03082
:100038008400013085004A308831792080312030B1
:100048008400023085001230883179208031A03058
:10005800840002308500403088317920803120309A
:100068008400033085004030883179207E102000DC
:100078008E31902E20005203031D562850081F3938
:10008800003A031D56282300B517033020005106F7
:10009800031D54280130E60066082300CF005628C7
:1000A8002300CF0120005208031D080050081F3903
:1000B800023A031D080054080F39003A03190800D2
:1000C80054080F39E6000330660203180800203090
:1000D80021006206031D08002300B5172000D41B69
:1000E800842854080F390907AD3E8600013087007F
:1000F800403FEB00413FEC0054080F39C33E9228C3
:1001080054080F390907A73E860001308700403F91
:10011800EB00413FEC0054080F39C03E8600013027
:1001280087000108E6006608EA006A18A528FB307F
:10013800E600FF30E7006B086605EB006C08670512
:10014800AA2804306B04EB0000306C04EC00D41BCC
:10015800B92854080F390907AD3E860001308700D9
:100168006B08C03F6C08C13FC42854080F39090701
:10017800A73E8600013087006B08C03F6C08C13F6E
:1001880003305106031DE6286B0886006C088700BB
:10019800811FDB28D41BD42854080F39C33ED72825
:1001A80054080F39C03E86000130870081146B085F
:1001B80086006C08870001156B0886006C088700AC
:1001C8008117080004306B06EB0000306C06EC0069
:1001D8006B0886006C088700811F0F297F30E600B6
:1001E8006B0886006C088700660881056B08860026
:1001F8006C08870001170030E1000530E0006C084A
:10020800E3006B08E2000230E4000030E5008A31C8
:100218004E228031152920006B0886006C08870063
:100228000117043020006B06EB0000306C06EC0070
:10023800EA1824296B0886006C088700811F492961
:10024800D41B2A2954080F39C33E2D2954080F39C5
:10025800C03E86000130870081103B30E6006B0805
:1002680086006C088700660881050030E1000530CB
:10027800E0006C08E3006B08E2000230E4000030A4
:10028800E5008A314E22803152293B302000E600B9
:100298006B0886006C0887006608810520005408F2
:1002A8000F39983EE600E7010E30E73D6608E800A2
:1002B8006708E900FE30E6006808860069088700DC
:1002C80066088105080021006203031D76293D00A8
:1002D8008E1A762990011214121602302100E900B4
:1002E8006908E2003D001019121D8329FB30210026
:1002F800E90069083D0090058931782181313D0088
:100308008E1C89292000121108001018121C9A2925
:1003180084319B248131210012150430E9006908D9
:10032800E200FE30E90069083D009005101A121E2F
:10033800A0298931392181313D00101FCA29121F96
:10034800B52973302000E0000030E1000030E20001
:100358000030E3000130E4000030E5008A314E222D
:100368008131BF302100E90069083D0090058831DE
:10037800E9208131230056080319C4290130D60227
:100388005608031DCA2987318D2781313D00901AEF
:10039800921ED1298931BB2181313D009018921CD0
:1003A800E729FF302000E0007F30E1000030E20064
:1003B8000030E3000130E4000030E5008A314E22CD
:1003C80081313D0093010430210062020318EF29B6
:1003D8002000121108003D00921D482A2000EF015C
:1003E80004306F020318482A3D00901D482A0F0860
:1003F8002100E9006908E500650CE900E90C690CD1
:100408000F39EA006A082300DD00F7302100E9000F
:1004180069083D00900521006519162A23005D082A
:10042800C33E192A23005D08C03E860001308700BC
:10043800010801392100E9000130E90601086906CF
:10044800FE396906810023005D08031D2F2A8B31C0
:100458009B2381313E2A72302000E0000030E10009
:10046800E530E2000030E3000030E400E5008A31C6
:100478004E22813101302100E90069082000EF0790
:1004880004306F02031CF829200012110800210013
:10049800121123004608470403195B2A4608860000
:1004A80047088700811F5B2A2100121508000330C6
:1004B80023005A060319DA015A08031D662A210087
:1004C80012150800023023005A06031D862A22004E
:1004D800E001E00A0030E1000030E200E301023010
:1004E800873109278231220061082300C7002200D2
:1004F80060082300C60003302200EB006B082300CD
:10050800DA00182B5A03031D182B41305B02031C19
:100518008F2A4030912A23005B082200EB006B08E9
:10052800ED006D03FF3A23005B072200EB006B0828
:100538002300DB00A0302200EB006B082300CA0078
:1005480022006D08EB006B08EC0023005808031923
:10055800CB2AED2A23004C088600033087000108C7
:100568002200EB0023004A088600870122006B085E
:1005780081000130EB006B082300CA07013022001C
:10058800EB006B082300CC0701302200EC022200AC
:100598006C080319F12AAE2A23004C0886000330A0
:1005A800870001082200EB0023004A088600870123
:1005B80022006B0881000130EB006B082300CA079A
:1005C80001302200EB006B082300CC070130220029
:1005D800EC0222006C08031DD02A23005B08031DCF
:1005E800022B403022006D06031DFC2A0230FE2A31
:1005F80003302200EB006B082300DA002200E00140
:10060800E00AA030E1000030E2006D08EB006B0862
:10061800E300023087310927220061082300C70060
:10062800220060082300C600210012150800E034EB
:100638008334663483349A348334233483340934DA
:10064800023443340034023401340034C0343234C8
:1006580009340434003400340134023402340134DF
:100668000034053424340034103401340434243480
:100678000234023405342434063400340134053499
:10068800243401340034013407340534813403340C
:100698000834003402340934043401340034023498
:1006A8000A34003400340034073405340234023488
:1006B8004034003400340734053482340234403482
:1006C80000340034343403344D3400346934003495
:1006D80063340034723400346F34003463340034CB
:1006E8006834003469340034703400342034003401
:1006F80054340034653400346334003468340034CE
:100708006E3400346F3400346C3400346F34003489
:1007180067340034793400342034003449340034E8
:100728006E340034633400342E34003434340334EB
:100738004334003444340034433400342034003427
:1007480052340034533400342D34003432340034FD
:100758003334003432340034203400344534003427
:100768006D340034753400346C3400346134003432
:1007780074340034693400346F3400346E34003417
:100788002034003444340034653400346D3400348B
:100798006F3400341234013400340234023400342B
:1007A80000340834D83404340A34003400340134B2
:1007B8000134023400340134043403340934043479
:1007C800210012113D009301900198010E30220082
:1007D800E2009930E100E301023063020318052CBE
:1007E800610886006208870081010130E107003056
:1007F800E23D0130E0006008E30702306302031CB9
:10080800F42B16303D0091009F3097007B3092000A
:100818002200E4010C30640203182B2C6408E00069
:100828000130E035FF3E031D152C6035203E860063
:1008380087010030C03F0030C13FC23FC33F013095
:10084800E0006008E4070C306402031C122C3D0031
:100858000E1796010E120E13F7302200E000600802
:100868003D0090052300B501A201A301A4013D00AC
:100878009019302C01302200E00060082300D400D9
:1008880001302200E00060082300D500D101D20128
:10089800D0012200E401033064020318772C643588
:1008A800A73E8600013087000030C03FC13F643555
:1008B800AD3E8600013087000030C03FC13F64086C
:1008C800C03E86000130870081016408C33E86006F
:1008D8000130870081010130E0006008E40703303F
:1008E8006402031C532C28302300A7000030A80002
:1008F80016303D00980000302000A3005030A200C0
:100908000830A10004302200E00060082000A000A8
:10091800A0172300E9010030BF000030BE000030FE
:10092800BD000030BC00D7012100E2010800210011
:1009380012113D009301900198010E30F200993098
:10094800F100F301023073020318BB2C7108860012
:100958007208870081010130F1070030F23D013053
:10096800F0007008F30702307302031CAA2C16303B
:100978003D0091009F3097007B309200F4010C30CD
:1009880074020318E02C7408F0000130F035FF3EC3
:10099800031DCA2C7035203E860087010030C03FF9
:1009A8000030C13FC23FC33F0130F0007008F40778
:1009B8000C307402031CC72C3D000E1796010E1252
:1009C8000E13F730F000700890052300B501A2015E
:1009D800A301A4013D009019E52C0130F000700836
:1009E8002300D4000130F0007008D500D101D201F5
:1009F800D001F401033074020318262D7435A73E84
:100A08008600013087000030C03FC13F7435AD3EDD
:100A18008600013087000030C03FC13F7408C03EE7
:100A280086000130870081017408C33E86000130CA
:100A3800870081010130F0007008F4070330740268
:100A4800031C022D28302300A7000030A800163010
:100A58003D00980000302000A3005030A20008306C
:100A6800A1000430F0007008A000A0172300E901DD
:100A78000030BF000030BE000030BD000030BC00B8
:100A8800D7012100E20108002100640886008701DF
:100A9800413FF5007508F200F301730823002402B2
:100AA800031D582D7208230203185E2D2308F20037
:100AB8007208F5007508F200F3017208A3027308C2
:100AC800A43BF4017508740203187F2D7408583E7E
:100AD800860087010108F20020088600013087009F
:100AE800720881000130F2007208A0070130F2009C
:100AF8007208F407662D230824040319BA2D21006F
:100B08006008013EF2000030613DF3007208860083
:100B180073088700083081005830F2000030F30075
:100B2800600886006108870042317208C03F730878
:100B3800C13F640886008701011BAE2D600886004E
:100B480061088700483081006008860061088700D6
:100B58008117080060088600610887000830810056
:100B68006008860061088700811708002100600876
:100B7800013EF2000030613DF30072088600730800
:100B88008700083081005030F2000030F300600820
:100B980086006108870042317208C03F7308C13F70
:100BA80060088600610887000430810060088600BC
:100BB800610887008117230025082608A213530817
:100BC800031D080087318D2708003D000E12230001
:100BD800B51B312EA21FFF2D0230F500750821002C
:100BE800E30023005208031DFB2D8C319F242300B2
:100BF800D501D401080021006008013EF50000304D
:100C0800613DF60075088600760887000830810087
:100C18005030F5000030F600600886006108870053
:100C280042317508C03F7608C13F600886006108F8
:100C380087000C30810060088600610887008117F2
:100C48002300270886002808870004308100270829
:100C5800860028088700811708002000D01F492E29
:100C68000130F50075082100E30023005108031D39
:100C7800402E8C319F2485312300D501D40153089F
:100C8800031D080087318D2708000230F50075081C
:100C98002100E3006008013EF5000030613DF600E8
:100CA8007508860076088700083081005030F50006
:100CB8000030F60060088600610887004231750838
:100CC800C03F7608C13F600886006108870004308D
:100CD8008100600886006108870081172300D5011C
:100CE800D4015308031D080087318D27080023000D
:100CF800B5170E302000E8009930E700E90102300E
:100D080069020318982E6708860068088700810121
:100D18000130E7070030E83D0130E6006608E907E2
:100D280002306902031C872E2030F0000030F100E9
:100D38000030F200F3003030F4000030F500883164
:100D4800D12086313D000E172000EA0103306A02E7
:100D58000318C22E6A08C03E860001308700810150
:100D68006A08C33E86000130870081010130E60031
:100D78006608EA0703306A02031CAE2EE730F0006B
:100D88000130F1000030F200F3000230F4000030CE
:100D9800F5008831D12086313D000E13283023001C
:100DA800A7000030A80020302000E60066082100D7
:100DB800E4006408E000FF39031D0030E100200072
:100DC8005208E60066082300E9006908031DF32EAF
:100DD80010302000E60066082100E200080000301C
:100DE8002000E1000130E000E930E2000130E300DA
:100DF8000130E4000030E5008A314E222030200026
:100E0800E60066082100E20008002200E800600809
:100E18000319172F6835A73E860001308700403F29
:100E2800E900413F1F2F6835AD3E8600013087003D
:100E3800403FE900413FEA0069086A04031D272F83
:100E4800E001E1010800FF306105E4007F30620540
:100E5800E500690886006A08870042316408C03FD7
:100E68006508C13F6908013EE40000306A3DE500BD
:100E78006408860065088700630881004030E40044
:100E8800690886006A088700640881056908860081
:100E98006A0887008115690886006A088700811733
:100EA80060080319702F6835A73E86000130870057
:100EB800403FE400413FE50004306406E6000030AE
:100EC8006506E7006835A73E86000130870066089A
:100ED800C03F6708C13F882F6835AD3E86000130A6
:100EE8008700403FE400413FE50004306406E60027
:100EF80000306506E7006835AD3E860001308700A2
:100F08006608C03F6708C13F6A08E1006908E00059
:100F1800080023005408031D08000130F000700881
:100F2800D4005508031D08000130F0007008D500F2
:100F3800023021006306031DB42F23002708860012
:100F48002808870041318101270886002808870082
:100F58004830810027088600280887008117080084
:100F680021006303031D08002300CE010830F000B0
:100F78002100640A86008701700881005030F00063
:100F88000030F1006408023E860087017008C03F07
:100F98007108C13F0430F0006408860087017008BA
:100FA800810064088600870181170130F00070080D
:100FB8002300CE0021006008013EF0000030613DB2
:100FC800F1007008860071088700083081005030F1
:100FD800F0000030F10060088600610887004231A7
:100FE8007008C03F7108C13F60088600610887002B
:060FF800803081000800BA
:101000008D317F2D8D31822D8D31BB2D8D31822DF6
:101010008D31BB2D8D31622D8D316B2D8D31A22DFA
:101020008D31712D8D316E2D8D31852D8D31952D1B
:041030008D31BB2D16
:1010F200640080010131890B7A28003421000D132C
:101102000D168E130E13200091112100911124004F
:101112009516151214171508F03901389500941315
:1011220008002200E200240011082200E00060080A
:10113200E1002000911122006208240091002000A9
:10114200911DA0280E150800F000AE28FC302100E9
:101152009900903027009B0008007008003A03199C
:10116200A728013A0319B928033A0319B928B9285B
:1011720008002200E000C428FC30210099009030D1
:1011820027009B00080022006008003A0319BD28CE
:10119200013A0319D028033A0319D028D0280800AD
:1011A2007108F7007008F6000130F4020030F53BD8
:1011B200740A0319750A031908007608860077086D
:1011C2008700720881000130F6070030F73DD5280C
:1011D20001302300BC070030BD3D0030BE3D003071
:1011E200BF3D5008031D08000130F0007008D7070A
:1011F2005708031D0800FF30F0007008D7000800F0
:101202002200E2002100121123005A08031D1929AD
:1012120022006208E10061082300CC00220060087D
:10122200E10061082300DB00D801D80ADA01DA0AFA
:1012320021001215080021006208031D08003D006C
:101242008E019201163091009F3097007B30920000
:10125200210012150B178B173D008E1932298E159E
:101262002D2901302200E00060082100E200080080
:101272003D001215EF302000E60066083D009005A3
:101282008E1401302000E60066082300D000D7014A
:1012920075302000E0000030E1000030E200003054
:1012A200E3000030E400E5008A314E220800FC0031
:1012B200771D6029F0017C088A31C3228931F71C2D
:1012C2006729F001F00A7C088A31C3227C08983E23
:1012D200F800F9010E30F93D7808FA007908FB00B0
:1012E2007A0886007B0887007708810008002300BF
:1012F200D00174302000E0000030E1000030E20054
:101302000030E3000030E400E5008A314E228931EA
:101312003D008E101211101D9529FB302000E600B1
:1013220066083D0090058C292300D70108002200A1
:10133200EC00671DA129E0016C088B31052389317E
:101342002200E71CA929E001E00A6C088B31052381
:1013520022006C08983EE800E9010E30E93D680879
:10136200EA006908EB006A0886006B0887006708D4
:10137200810008003D00181CDD2921006408860058
:10138200870180300106031DDB2923002708860020
:101392002808870084300106031DDB290C30F00089
:1013A20021006408860087017008810064088600B5
:1013B200870181173D001810DF30F000700890059A
:1013C200080000302300E3000030E2004B30E1006F
:1013D2000030E000E401E5010830FD007D08E60090
:1013E200D9011A30FD007D08F700013089315821FA
:1013F20089311E30FD007D08F70002308931582105
:101402008931F0012030F1000130F2004030FD005E
:101412007D08F30002308F317D2771082300C90057
:101422007008C800C601C701DA01080002302100B5
:101432006306031D1F2A8531482508002100E301A8
:1014420023004E08031D4B2A21006008013EF600CE
:101452000030613DF7007608860077088700083083
:1014620081005030F6000030F70060088600610805
:10147200870042317608C03F7708C13F6008860086
:10148200610887000C3081006008860061088700CF
:10149200811708002300CE0108005D2A013088313F
:1014A200A520080002308831A52008008931E221F8
:1014B20008008C31FB24080020006108003A03195F
:1014C200662A7F3A0319802A852A6008013A03199D
:1014D200572A033A0319852A013A03195A2A063A66
:1014E2000319852A773A0319852A013A0319852AAD
:1014F200073A0319532A013A03194F2A852A600829
:10150200FF3A0319852A852A080000302300E300E8
:101512000030E2004B30E1000030E000E401E50180
:1015220008302200ED006D082300E600D9011A30D0
:101532002200ED006D08E7000130893198218A31DF
:101542001E302200ED006D08E7000230893198213B
:101552008A312200E0012030E1000130E200403017
:10156200ED006D08E300023087310927220061088F
:101572002300C900220060082300C800C601C70179
:10158200DA010800F5002030F1007108F600700859
:10159200F1000130F135890BCB2A7508F2000130D8
:1015A200F235FF3E031DD12A72357107F300013077
:1015B200F335FF3E031DD92A7335F4007408F6078C
:1015C20076088600870181137008031DF22A75359B
:1015D200AD3E8600013087007608C03F0030C13F33
:1015E200FB2A7535A73E8600013087007608C03F8A
:1015F2000030C13F76088600870101137608043E59
:1016020086008701011708002200E5002030E10072
:101612006108E6006008E1000130E135890B0E2B1C
:101622006508E2000130E235FF3E031D142B6235EE
:101632006107E3000130E335FF3E031D1C2B6335D8
:10164200E4006408E60766088600870181136008E3
:10165200031D352B6535AD3E8600013087006608D7
:10166200C03F0030C13F3E2B6535A73E86000130AA
:1016720087006608C03F0030C13F660886008701C8
:1016820001136608043E8600870101170800230043
:10169200DF01D301D101D201CE012100E3017F306C
:1016A2002000EE002300270886002808870020007B
:1016B2006E088105043023002706A70000302806A3
:1016C200A8007F302000EE002300270886002808AB
:1016D200870020006E088105043023002706A7003A
:1016E20000302806A8007F302000EE0021006008AC
:1016F20086006108870020006E0881052300B5017D
:10170200B601B701A201A301A4018D315A258B3183
:1017120000302000E1000330E0000030E200003041
:10172200E3000030E400E5008A314E228B3185313E
:10173200E92508002D302100E60066082300D600C6
:1017420021006508FD39031DE42B65363F39E600AB
:101752000130E635FF3E031DAA2B6635203EE70029
:101762006708E4006408E000FF39031D0030E1006F
:1017720004306006E00000306106E1006408860083
:101782008701010C890C0F390D3A031DE12B5030F2
:101792008600870121006408023E84008501003F23
:1017A200E600013FE700660884006708850008300C
:1017B200E80012001E00E80BDA2B8B3148230800E8
:1017C2008A3117220800FD3021006505E600043049
:1017D2006606031D08008E31242608002000D80169
:1017E200D9012B2C2300B51723004F03031D372CDF
:1017F2002000D814372C2300B517372C2300B51737
:101802002000D41B0F2C54080F390907AD3E860067
:1018120001308700403FF100413F192C54080F3935
:101822000907A73E860001308700403FF100413F93
:10183200F2007108860072088700811F372C710838
:10184200860072088700011D372C0130F0007008F5
:10185200D800372C50081F39003A0319F32B013AEC
:101862000319FC2B033A0319FF2B372C2300B51F56
:1018720008005830B3000030B40035140230F000D4
:101882007008B60008002200EE002300D9014808C3
:1018920049040319522C4808860049088700811B15
:1018A2009D2C4808860049088700413122006B08B8
:1018B20001020318672C23004808860049088700A4
:1018C200413101082200EC006C08EB002300D90131
:1018D20022006B08230059020318882C5908203E65
:1018E20086000130870001082200EC00230059081D
:1018F20022006E07ED006D088600023087006C083A
:1019020081000130EC006C082300D907692C220009
:10191200E0012030E1000130E2004030EC006C08D0
:10192200E300023087310927220061082300C90041
:10193200220060082300C800590808002300D101D2
:10194200D201023021006306031DCC2C6008013E47
:10195200F3000030613DF4007308860074088700CC
:10196200083081005830F3000030F400600886002F
:101972006108870042317308C03F7408C13F6008A4
:10198200860061088700483081006008860061088F
:101992008700811708002300370820005702031D23
:1019A200D62C23003608200056020318DF2C5708D5
:1019B2002300B700200056082300B6008D31BC2555
:1019C2005830F3000030F40023002708860028086E
:1019D200870042317308C03F7408C13F2708860060
:1019E20028088700483081002708860028088700D9
:1019F20081170800200050081F39013A031D080012
:101A0200500E890C0339013A031D080054080319CA
:101A1200472D5403031D0800472D2A302300B3002D
:101A22000230B4000030B7000830B6003514B517E4
:101A320008002A302300B3000230B400B5170800B2
:101A4200200057082300A400200056082300A3000A
:101A5200E030F0007008A000A501A601A21708005E
:101A6200E0302300B3000130B4000030B70007308B
:101A7200B600C130F0007008B5000800200052081E
:101A8200F00070082300DC00B517080020005108A0
:101A9200003A03190E2D013A03191A2D213A03199E
:101AA200212D013A0319312D033A03193F2D592DE6
:101AB20008002000500E890C0339003A031D08006B
:101AC200B02D2300B51708302000ED006D0821006D
:101AD200E20008008E31FE26080086317B260800CF
:101AE200E9302300B3000130B40035140130200086
:101AF200ED006D082300B600B51708008B31EF2307
:101B0200080080313E20080020005408E73E2300F0
:101B1200B3000130B400351401302000ED006D082F
:101B22002300B600B51708002300B517200052089D
:101B3200ED005408E73E8600013087006D08810001
:101B420008000030E1000230E0000030E200003026
:101B5200E3000030E400E5008A314E220800200054
:101B6200510884000D30040203180800883104353E
:101B7200003E820008000830F0007008F2000030D9
:101B8200230037020830031936020318D82D36080D
:101B9200F0007008F2005F08031DD12D0130D52D31
:101BA2005F03031DD82D0230F0007008DF007208B9
:101BB200F000F1017008B6027108B73B2708013E38
:101BC200F0000030283DF10070088600710887009F
:101BD200720881005830F0007008DE00351C072EB4
:101BE200202E33088400340885000008F0005E08C7
:101BF20086008701700881000130B3070030B43DD0
:101C02000130F0007008DE070130F2027208031999
:101C12000800F22D33088400340885000008F00023
:101C22005E0886008701700881000130B30700302A
:101C3200B43D0130F0007008DE070130F202720894
:101C4200031908000B2E23002708860028088700A6
:101C52000030011B0130F50004302706A7000030D8
:101C62002806A800083021006206031D472E200026
:101C720052087F393D00960016080319422E103093
:101C8200432E0430F30073082100E2006303031DB6
:101C9200872E5830F3000030F40023002708860016
:101CA2002808870042317308C03F7408C13F8D3154
:101CB200BC258E31023023005F06031D6C2E2708DF
:101CC200860028088700043081002708860028083B
:101CD2008700811708007508031D7B2E27088600E0
:101CE20028088700483081002708860028088700D6
:101CF200811708002708860028088700083081001D
:101D02002708860028088700811708002300A21FE1
:101D12008D2E25082608A2132100E30108000030B9
:101D22008831BA208E318331E4238E3189311C21EE
:101D32008E318A3186228E3100302300E30000305A
:101D4200E2000430E100B030E00088317F208E31C3
:101D520021008E120E1123000E1120000E112300FD
:101D62005A08031DFA2E4030EA006A082200EB00EE
:101D7200A0308C3144248E312300EB006B08ED003F
:101D82006D080319FA2E20008E168E122300EE0122
:101D92006D086E020318EE2E6E08A03E8600023019
:101DA20087000108EA006A08EC006C08883192207A
:101DB2008E3123006E08A03E8600023087000108A3
:101DC200EA006E08203E8600033087006A08810020
:101DD2000130EA006A08EE07C92E20008E162300A1
:101DE2006D08EA006A082200E000203089310121F2
:101DF2008E3182314B228E31B02E8030200050063F
:101E0200031D0800C030F00070082300B500702FD9
:101E1200CE302300B3008330B4000030B70012305C
:101E2200B600080020005208031D462F5208F00099
:101E3200F101F035F10D2130700784008330713DDE
:101E42008500003F2300B300013FB4003408F100D5
:101E52003308F00002307007840071080318710A19
:101E620085000008F2007208B6003408F100330859
:101E7200F00003307007840071080318710A8500AE
:101E82000008F2007208B70008002300B50108003C
:101E920003302000520203186A2F5208F000F101A9
:101EA200F035F10D1B30700784008330713D8500E1
:101EB200003F2300B300013FB4003308840034081C
:101EC20085000008F000F1017008B6007108B70043
:101ED20008002300B50108002300B5010800200016
:101EE2005308013A0319092F033A0319132F013A30
:101EF2000319492F6D2F0800F800700803198A2F63
:101F02007835A73E860001308700403FF900413F07
:101F1200922F7835AD3E860001308700403FF900B0
:101F2200413FFA0079087A04031D9A2FF001F1016A
:101F32000800FF307105F4007F307205F500790862
:101F420086007A08870042317408C03F7508C13F95
:101F52007908013EF40000307A3DF50074088600ED
:101F620075088700730881004030F4007908860004
:101F72007A08870074088105790886007A08870044
:101F82008115790886007A0887008117700803197D
:101F9200E32F7835A73E860001308700403FF400EA
:101FA200413FF50004307406F60000307506F70074
:101FB2007835A73E8600013087007608C03F770853
:101FC200C13FFB2F7835AD3E860001308700403F90
:101FD200F400413FF50004307406F6000030750647
:101FE200F7007835AD3E8600013087007608C03FA5
:0E1FF2007708C13F7A08F1007908F000080076
:020000040001F9
:04000E00E4C1CFFF7B
:00000001FF
