:040000008031122811
:100008007E14803120007F082100EB0081316921B6
:1000180021006B082000FF007E10090080311428A1
:100028002100E001E101E201E301E401E501220030
:10003800EF01A030840001308500493089315B210F
:1000480080312030840002308500123089315B21F4
:100058008031A030840002308500403089315B2136
:1000680080312030840003308500403089315B21A5
:100078007E1020008631422E20005203031D58288E
:1000880050081F39003A031D58282300B5170330BC
:1000980020005106031D56280130E600660823009B
:1000A800DC0058282300DC0120005208031D08004A
:1000B80050081F39023A031D080054080F39003A46
:1000C8000319080054080F39E600033066020318C4
:1000D8000800203022006F06031D08002300B51712
:1000E8002000D41B862854080F390907AD3E860026
:1000F80001308700403FEB00413FEC0054080F39C6
:10010800C03E942854080F390907A73E86000130DD
:100118008700403FEB00413FEC0054080F39C33ED5
:100128008600013087000108E6006608EA006A18C0
:10013800A728FB30E600FF30E7006B086605EB00F8
:100148006C086705AC2804306B04EB0000306C04C5
:10015800EC00D41BBB2854080F390907AD3E8600B4
:10016800013087006B08C03F6C08C13FC62854089F
:100178000F390907A73E8600013087006B08C03F8A
:100188006C08C13F03305106031DE8286B08860040
:100198006C088700811FDD28D41BD62854080F3926
:1001A800C03ED92854080F39C33E86000130870065
:1001B80081146B0886006C08870001156B0886009F
:1001C8006C0887008117080004306B06EB000030CC
:1001D8006C06EC006B0886006C088700811F1129EB
:1001E8007F30E6006B0886006C088700660881058A
:1001F8006B0886006C08870001170030E1000530A5
:10020800E0006C08E3006B08E2000230E400003014
:10021800E5008A31C8228031172920006B08860042
:100228006C0887000117043020006B06EB000030D3
:100238006C06EC00EA1826296B0886006C08870013
:10024800811F4B29D41B2C2954080F39C03E2F2954
:1002580054080F39C33E86000130870081103B30B7
:10026800E6006B0886006C08870066088105003088
:10027800E1000530E0006C08E3006B08E2000230A2
:10028800E4000030E5008A31C822803154293B302F
:100298002000E6006B0886006C0887006608810568
:1002A800200054080F39983EE600E7010E30E73D7C
:1002B8006608E8006708E900FE30E600680886007E
:1002C8006908870066088105080022006F03031D7E
:1002D80079293D008E1A79299001121412160230DC
:1002E8002100E90069082200EF003D001019121DE5
:1002F8008629FB302100E90069083D0090058A3114
:10030800182281313D008E1C8C2920001211080012
:100318001018121C9F298331D42381312100121512
:100328000430E90069082200EF00FE302100E900EE
:1003380069083D009005101A121EA5298931D92196
:1003480081313D00101FCF29121FBA2973302000B8
:10035800E0000030E1000030E2000030E30001304E
:10036800E4000030E5008A31C8228131BF30210025
:10037800E90069083D0090058931A52181312300F4
:1003880058080319C9290130D8025808031DCF2974
:100398008F310F2781313D00901A921ED62987315F
:1003A800D62781313D009018921CEC29FF3020009F
:1003B800E0007F30E1000030E2000030E30001306F
:1003C800E4000030E5008A31C82281313D00930104
:1003D800043022006F020318F429200012110800CB
:1003E8003D00921D4D2A2000EF0104306F020318D2
:1003F8004D2A3D00901D4D2A0F082100E90069088B
:10040800E500650CE900E90C690C0F39EA006A0897
:100418002300DA00F7302100E90069083D00900563
:10042800210065191B2A23005A08C03E1E2A2300F2
:100438005A08C33E860001308700010801392100AF
:10044800E9000130E90601086906FE3969068100FC
:1004580023005A08031D342A8C316B248131432A26
:1004680072302000E0000030E100E530E2000030AA
:10047800E3000030E400E5008A31C8228131013010
:100488002100E90069082000EF0704306F02031C0F
:10049800FD2920001211080021001211230046082E
:1004A80047040319602A4608860047088700811F09
:1004B800602A210012150800033021006206031982
:1004C800E2016208031D6A2A12150800023062065A
:1004D800031D892A2200E001E00A0030E100003013
:1004E800E200E30102308631CF2682312200610822
:1004F8002300C700220060082300C6000330220042
:10050800EB006B082100E2001A2B6203031D1A2B73
:10051800413023005002031C932A4030952A2300BF
:1005280050082200EB006B08ED006D03FF3A230032
:1005380050072200EB006B082300D000A0302200F7
:10054800EB006B082300CA0022006D08EB006B0863
:10055800EC0023004F080319CE2AEF2A23004C0889
:100568008600870101082200EB0023004A08860064
:10057800870122006B0881000130EB006B08230023
:10058800CA0701302200EB006B082300CC070130BA
:100598002200EC0222006C080319F32AB22A230075
:1005A8004C088600870101082200EB0023004A0856
:1005B8008600870122006B0881000130EB006B0880
:1005C8002300CA0701302200EB006B082300CC0788
:1005D80001302200EC0222006C08031DD32A2300FC
:1005E8005008031D042B403022006D06031DFE2A0F
:1005F8000230002B03302200EB006B082100E200E0
:100608002200E001E00AA030E1000030E2006D08BD
:10061800EB006B08E30002308631CF262200610828
:100628002300C700220060082300C600210012151D
:100638000800210012113D009301900198010E302D
:100648002200E2009930E100E3010230630203185E
:100658003E2B610886006208870081010130E107AE
:100668000030E23D0130E0006008E3070230630239
:10067800031C2D2B16303D0091009F3097007B30D6
:1006880092002200E4010C3064020318642B640811
:10069800E0000130E035FF3E031D4E2B6035203E63
:1006A800860087010030C03F0030C13FC23FC33FD2
:1006B8000130E0006008E4070C306402031C4B2B97
:1006C8003D000E1796010E120E13F7302200E000BF
:1006D80060083D0090052300B501A201A301A40113
:1006E8003D009019692B01302200E00060082300CA
:1006F800D60001302200E00060082300D500D401B4
:10070800D301DB012200E401033064020318B02B9B
:100718006435A73E8600013087000030C03FC13FE6
:100728006435AD3E8600013087000030C03FC13FD0
:100738006408C33E86000130870081016408C03E1A
:1007480086000130870081010130E0006008E4077D
:1007580003306402031C8C2B28302300A7000030D0
:10076800A80016303D00980000302000A30050304B
:10077800A2000830A10004302200E0006008200038
:10078800A000A0172300E8010030BF000030BE0021
:100798000030BD000030BC00D2012200EF0108008B
:1007A800210012113D009301900198010E30F200D2
:1007B8009930F100F301023073020318F42B710829
:1007C80086007208870081010130F1070030F23D90
:1007D8000130F0007008F30702307302031CE32BAA
:1007E80016303D0091009F3097007B309200F40155
:1007F8000C3074020318192C7408F0000130F0351D
:10080800FF3E031D032C7035203E86008701003013
:10081800C03F0030C13FC23FC33F0130F000700805
:10082800F4070C307402031C002C3D000E179601CF
:100838000E120E13F730F000700890052300B50172
:10084800A201A301A4013D0090191E2C0130F00063
:1008580070082300D6000130F0007008D500D401DC
:10086800D301DB01F4010330740203185F2C7435E3
:10087800A73E8600013087000030C03FC13F743575
:10088800AD3E8600013087000030C03FC13F74088C
:10089800C33E86000130870081017408C03E86008F
:1008A8000130870081010130F0007008F40703303F
:1008B8007402031C3B2C28302300A7000030A8003A
:1008C80016303D00980000302000A3005030A200F0
:1008D8000830A1000430F0007008A000A017230021
:1008E800E8010030BF000030BE000030BD0000301D
:1008F800BC00D2012200EF01080021006408860034
:100908008701413FF5007508F200F30173082300E1
:100918002402031D912C720823020318972C230824
:10092800F2007208F5007508F200F3017208A302DC
:100938007308A43BF401750874020318B82C7408F2
:10094800583E860087010108F20020088600013021
:100958008700720881000130F2007208A007013098
:10096800F2007208F4079F2C230824040319F32CBF
:1009780021006008013EF2000030613DF30072087A
:10098800860073088700083081005830F200003074
:10099800F300600886006108870042317208C03F92
:1009A8007308C13F640886008701011BE72C6008B3
:1009B8008600610887004830810060088600610869
:1009C80087008117080060088600610887000830E2
:1009D80081006008860061088700811708002100EF
:1009E8006008013EF2000030613DF30072088600A5
:1009F80073088700083081005030F2000030F3009F
:100A0800600886006108870042317208C03F730899
:100A1800C13F6008860061088700043081006008D3
:100A28008600610887008117230025082608A2137D
:100A38005708031D08008F310F2708003D000E12CC
:100A48002300B51B6A2DA21F382D0230F50075084A
:100A58002100E30023005308031D342D8D311D258B
:100A68002300D501D601080021006008013EF500E9
:100A78000030613DF600750886007608870008306A
:100A880081005030F5000030F600600886006108EB
:100A9800870042317508C03F7608C13F600886006C
:100AA800610887000C3081006008860061088700B3
:100AB8008117230027088600280887000430810052
:100AC8002708860028088700811708002000D01F03
:100AD800822D0130F50075082100E3002300540839
:100AE800031D792D8D311D2585312300D501D601B2
:100AF8005708031D08008F310F2708000230F50042
:100B080075082100E3006008013EF5000030613DF2
:100B1800F600750886007608870008308100503096
:100B2800F5000030F6006008860061088700423151
:100B38007508C03F7608C13F6008860061088700D5
:100B4800043081006008860061088700811723004F
:100B5800D501D6015708031D08008F310F2708005B
:100B68002300B5170E302000E8009930E700E901AE
:100B7800023069020318D12D6708860068088700CB
:100B880081010130E7070030E83D0130E6006608E2
:100B9800E90702306902031CC02D2030F000003044
:100BA800F1000030F200F3003030F4000030F500BE
:100BB80089318D2185313D000E172000EA0103306F
:100BC8006A020318FB2D6A08C33E860001308700BD
:100BD80081016A08C03E860001308700810101302A
:100BE800E6006608EA0703306A02031CE72DE630D0
:100BF800F0000130F1000030F200F3000230F400A0
:100C08000030F50089318D2185313D000E132830E3
:100C18002300A7000030A80020302000E600660866
:100C28002100E4006408E000FF39031D0030E10002
:100C380020005208E60066082300E8006808031D43
:100C48002C2E10302000E60066082200EF00080075
:100C580000302000E1000130E000E830E20001301F
:100C6800E3000130E4000030E5008A31C82220307A
:100C78002000E60066082200EF00080000308931F5
:100C88007621863183311D2386318931BD21863114
:100C98008B310023863100302300E2000030E10070
:100CA8000430E000B030DF008D018E0121008D019D
:100CB8008E0120000E150D1221006208031DCB2E97
:100CC80020008D131F302300EA007130E9001E3028
:100CD800890B6C2EE90B6C2EEA0B6C2E0000403051
:100CE8002300E90069082200EB00A0308C31C224FF
:100CF80086312300EA006A08EB006B080319CB2E43
:100D080020008D173D302300EA00E130E9003F3034
:100D1800890B8C2EE90B8C2EEA0B8C2E0032BC2E04
:100D280020000E15CB2E20000E11CB2E20000D1208
:100D3800CB2E20000D16CB2E2300EC010F306C02B9
:100D48000318CB2E803020008D0607302300EA00E0
:100D58001730E9006A30890BAF2EE90BAF2EEA0B8A
:100D6800AF2E000001302300E9006908EC07A22E2D
:100D780025002008013A0319942E033A0319972EE7
:100D8800013A03199A2E073A03199D2EA02E823193
:100D980050228631602E2200E80060080319DD2EFB
:100DA8006835A73E860001308700403FE900413F93
:100DB800E52E6835AD3E860001308700403FE900EA
:100DC800413FEA0069086A04031DED2EE001E101D4
:100DD8000800FF306105E4007F306205E50069081E
:100DE80086006A08870042316408C03F6508C13F31
:100DF8006908013EE40000306A3DE50064088600A9
:100E080065088700630881004030E40069088600AF
:100E18006A08870064088105690886006A088700EF
:100E28008115690886006A08870081176008031918
:100E3800362F6835A73E860001308700403FE40022
:100E4800413FE50004306406E60000306506E7002F
:100E58006835A73E8600013087006608C03F6708EE
:100E6800C13F4E2F6835AD3E860001308700403FB8
:100E7800E400413FE50004306406E6000030650602
:100E8800E7006835AD3E8600013087006608C03F40
:100E98006708C13F6A08E1006908E0000800F80037
:100EA80070080319602F7835A73E86000130870047
:100EB800403FF900413F682F7835AD3E860001304C
:100EC8008700403FF900413FFA0079087A04031D82
:100ED800702FF001F1010800FF307105F4007F3038
:100EE8007205F500790886007A088700423174088F
:100EF800C03F7508C13F7908013EF40000307A3DD3
:100F0800F500740886007508870073088100403072
:100F1800F400790886007A08870074088105790842
:100F280086007A0887008115790886007A08870084
:100F3800811770080319B92F7835A73E860001304C
:100F48008700403FF400413FF50004307406F60086
:100F580000307506F7007835A73E86000130870017
:100F68007608C03F7708C13FD12F7835AD3E86005F
:100F780001308700403FF400413FF500043074061B
:100F8800F60000307506F7007835AD3E8600013072
:100F980087007608C03F7708C13F7A08F1007908D2
:100FA800F00008003D00181CF82F21006408860096
:100FB800870180300106031DF62F230027088600CD
:100FC8002808870084300106031DF62F0C30F00036
:100FD8002100640886008701700881006408860083
:100FE800870181173D001810DF30F0007008900568
:020FF8000800EF
:101000008D31FD2D8E31002E8E31392E8E31002EF8
:101010008E31392E8D31E02D8D31E92D8E31202EFE
:101020008D31EF2D8D31EC2D8E31032E8E31132E1F
:041030008E31392E96
:1012B600640080010131890B5C290034F0006A2941
:1012C600FC3021009900903027009B000800700830
:1012D600003A03196329013A03197529033A0319D8
:1012E6007529752908002200E0008029FC302100BC
:1012F6009900903027009B00080022006008003A01
:1013060003197929013A03198C29033A03198C29FF
:101316008C2908007108F7007008F6000130F40205
:101326000030F53B740A0319750A0319080076089C
:10133600860077088700720881000130F6070030C2
:10134600F73D912901302300BC070030BD3D003038
:10135600BE3D0030BF3D5B08031D08000130F000B4
:101366007008D2075208031D0800FF30F00070080D
:10137600D200080022006F08031D08003D008E0100
:101386009201163091009F3097007B309200210029
:1013960012150B178B173D008E19D3298E15CE29E2
:1013A60001302200E0006008EF0008003D00121541
:1013B600EF302000E60066083D0090058E140130EF
:1013C6002000E60066082300DB00D201753020000D
:1013D600E0000030E1000030E2000030E3000030C1
:1013E600E400E5008A31C8220800FC00771D002AC7
:1013F600F0017C088B313E238931F71C072AF00166
:10140600F00A7C088B313E237C08983EF800F901EF
:101416000E30F93D7808FA007908FB007A08860054
:101426007B0887007708810008002300DB01743001
:101436002000E0000030E1000030E2000030E30070
:101446000030E400E5008A31C8228A313D008E1062
:101456001211101D352AFB302000E60066083D00FB
:1014660090052C2A2300D20108002200EC00671DFB
:10147600412AE0016C088B3180238A312200E71C67
:10148600492AE001E00A6C088B31802322006C08AF
:10149600983EE800E9010E30E93D6808EA0069086F
:1014A600EB006A0886006B08870067088100080061
:1014B60000302300E2000030E1004B30E000003055
:1014C600DF00E301E4010830FD007D08E500D101FD
:1014D6001A30FD007D08F70001308931F8218A3184
:1014E6001E30FD007D08F70002308931F8218A316F
:1014F600F0012030F1000130F2004030FD007D089F
:10150600F30002308731532771082300C9007008A1
:10151600C800C601C7012100E2010800023021000F
:101526006306031D992A8431812408002100E30102
:1015360023005908031DC52A21006008013EF60054
:101546000030613DF700760886007708870008308E
:1015560081005030F6000030F70060088600610810
:10156600870042317608C03F7708C13F6008860091
:10157600610887000C3081006008860061088700DA
:10158600811708002300D9010800D72A01308931C4
:101596006121080002308931612108008A315B220D
:1015A60008008D317925080020006108003A0319EA
:1015B600E02A7F3A0319FA2AFF2A6008013A03193A
:1015C600D12A033A0319FF2A013A0319D42A063A03
:1015D6000319FF2A773A0319FF2A013A0319FF2A4A
:1015E600073A0319CD2A013A0319C92AFF2A6008C6
:1015F600FF3A0319FF2AFF2A080000302300E20001
:101606000030E1004B30E0000030DF00E301E40190
:1016160008302200ED006D082300E500D1011A30E4
:101626002200ED006D08E70001308A3138228B3147
:101636001E302200ED006D08E70002308A313822A4
:101646008B312200E0012030E1000130E200403021
:10165600ED006D08E30002308631CF2622006108D6
:101666002300C900220060082300C800C601C70184
:101676002100E2010800F5002030F1007108F600B3
:101686007008F1000130F135890B462B7508F20020
:101696000130F235FF3E031D4C2B72357107F30006
:1016A6000130F335FF3E031D542B7335F4007408E7
:1016B600F60776088600870181137008031D6D2BD7
:1016C6007535AD3E8600013087007608C03F003094
:1016D600C13F762B7535A73E860001308700760818
:1016E600C03F0030C13F76088600870101137608A7
:1016F600043E86008701011708002200E50020301D
:10170600E1006108E6006008E1000130E135890B7F
:10171600892B6508E2000130E235FF3E031D8F2B61
:1017260062356107E3000130E335FF3E031D972B69
:101736006335E4006408E6076608860087018113BE
:101746006008031DB02B6535AD3E8600013087006D
:101756006608C03F0030C13FB92B6535A73E8600FD
:10176600013087006608C03F0030C13F660886002A
:10177600870101136608043E8600870101170800E9
:101786002300DE01D701D401D301D9012100E301F1
:101796007F302000EE0023002708860028088700F7
:1017A60020006E088105043023002706A7000030BC
:1017B6002806A8007F302000EE00230027088600B8
:1017C6002808870020006E088105043023002706BC
:1017D600A70000302806A8007F302000EE00210078
:1017E600600886006108870020006E0881052300D6
:1017F600B501B601B701A201A301A4018D31D82517
:101806008B3100302000E1000330E0000030E200C0
:101816000030E3000030E400E5008A31C8228B3155
:101826008531222508002000D801D901522C230039
:10183600B51723005C03031D5E2C2000D8145E2C14
:101846002300B5175E2C2300B5172000D41B362CB9
:1018560054080F390907AD3E860001308700403F26
:10186600F100413F402C54080F390907A73E860076
:1018760001308700403FF100413FF20071088600C9
:1018860072088700811F5E2C710886007208870027
:10189600011D5E2C0130F0007008D8005E2C500847
:1018A6001F39003A03191A2C013A0319232C033A5B
:1018B6000319262C5E2C2300B51F08005830B300F0
:1018C6000030B40035140230F0007008B60008008D
:1018D6002D302100E60066082300D80021006508A7
:1018E600FD39031DB72C65363F39E6000130E63574
:1018F600FF3E031D7A2C6635203EE7006708E400AC
:101906006408E000FF39031D0030E1000430600682
:10191600E00000306106E100640886008701010CE2
:10192600890C0F390D3A031DB42C503086008701FF
:1019360021006408023E84008501003FE600013F65
:10194600E70066088400670885000830E800680834
:101956000319B12C12001E00E80BAD2C8B31C323EA
:1019660008008A3191220800FD3021006505E60055
:1019760004306606031D08008E31A22608002200E8
:10198600EE002300D101480849040319D02C480869
:10199600860049088700811B1B2D480886004908D8
:1019A6008700413122006B0801020318E52C230051
:1019B6004808860049088700413101082200EC00EA
:1019C6006C08EB002300D10122006B0823005102B2
:1019D6000318062D5108203E8600013087000108B5
:1019E6002200EC002300510822006E07ED006D086E
:1019F6008600023087006C0881000130EC006C081C
:101A06002300D107E72C2200E0012030E10001305D
:101A1600E2004030EC006C08E30002308631CF264D
:101A2600220061082300C900220060082300C800C4
:101A3600510808002300D401D301023021006306B7
:101A4600031D4A2D6008013EF3000030613DF4009D
:101A56007308860074088700083081005830F30048
:101A66000030F40060088600610887004231730880
:101A7600C03F7408C13F600886006108870048308F
:101A8600810060088600610887008117080023002E
:101A9600370820005702031D542D23003608200066
:101AA600560203185D2D57082300B700200056087C
:101AB6002300B6008E313A265830F3000030F40089
:101AC6002300270886002808870042317308C03F94
:101AD6007408C13F2708860028088700483081001F
:101AE600270886002808870081170800200050086C
:101AF6001F39013A031D0800500E890C0339013ABB
:101B0600031D080054080319C52D5403031D0800BE
:101B1600C52D2A302300B3000230B4000030B700D0
:101B26000830B6003514B51708002A302300B30074
:101B36000230B400B5170800200057082300A4009F
:101B4600200056082300A300DF30F0007008A00034
:101B5600A501A601A2170800DF302300B30001305B
:101B6600B4000030B7000730B600C130F00070088E
:101B7600B500080020005208F00070082300CE00CF
:101B8600B517080020005108003A03198C2D013AB8
:101B96000319982D213A03199F2D013A0319AF2DE8
:101BA600033A0319BD2DD72D08002000500E890CCD
:101BB6000339003A031D08002E2E2300B5170830FE
:101BC6002000ED006D082200EF0008008F3181270C
:101BD60008008531B4250800E8302300B300013041
:101BE600B400351401302000ED006D082300B60066
:101BF600B51708008C3116240800803140200800F3
:101C060020005408E63E2300B3000130B40035142A
:101C160001302000ED006D082300B600B51708005E
:101C26002300B51720005208ED005408E63E860052
:101C3600013087006D08810008000030E1000230A5
:101C4600E0000030E2000030E3000030E400E50090
:101C56008A31C82208002000510884000D30040291
:101C66000318080088310435003E82000800083059
:101C7600F0007008F2000030230037020830031924
:101C860036020318562E3608F0007008F2005E0879
:101C9600031D4F2E0130532E5E03031D562E0230B8
:101CA600F0007008DE007208F000F1017008B6025C
:101CB6007108B73B2708013EF0000030283DF100CF
:101CC6007008860071088700720881005830F0009D
:101CD6007008DD00351C852E9E2E330884003408DE
:101CE60085000008F0005D08860087017008810005
:101CF6000130B3070030B43D0130F0007008DD0755
:101D06000130F202720803190800702E33088400AD
:101D1600340885000008F0005D0886008701700819
:101D260081000130B3070030B43D0130F000700887
:101D3600DD070130F202720803190800892E23001C
:101D460027088600280887000030011B0130F500AF
:101D560004302706A70000302806A8000830220015
:101D66006F06031DC52E200052087F393D009600E0
:101D760016080319C02E1030C12E0430F300730864
:101D86002200EF0021006303031D062F5830F300E5
:101D96000030F40023002708860028088700423117
:101DA6007308C03F7408C13F8E313A268E31023027
:101DB60023005E06031DEB2E2708860028088700F1
:101DC600043081002708860028088700811708004C
:101DD6007508031DFA2E2708860028088700483054
:101DE6008100270886002808870081170800270831
:101DF6008600280887000830810027088600280802
:101E06008700811708002300A21F0C2F250826082B
:101E1600A2132100E301080023005608031D080051
:101E26000130F0007008D6005508031D0800013087
:101E3600F0007008D500023021006306031D362F1E
:101E460023002708860028088700413181012708DA
:101E56008600280887004830810027088600280861
:101E660087008117080021006303031D0800230073
:101E7600D9010830F0002100640A86008701700845
:101E860081005030F0000030F1006408023E860008
:101E960087017008C03F7108C13F0430F000640834
:101EA6008600870170088100640886008701811713
:101EB6000130F00070082300D90021006008013EBF
:101EC600F0000030613DF10070088600710887005F
:101ED600083081005030F0000030F10060088600C4
:101EE6006108870042317008C03F7108C13F600831
:101EF600860061088700803081000800803020005D
:101F06005006031D0800C030F00070082300B5001D
:101F1600F32FAB302300B3009030B4000030B7008D
:101F26001230B600080020005208031DC92F5208BF
:101F3600F000F101F035F10DC730700784009030E4
:101F4600713D8500003F2300B300013FB400340813
:101F5600F1003308F000023070078400710803189E
:101F6600710A85000008F2007208B6003408F10014
:101F76003308F00003307007840071080318710AF3
:101F860085000008F2007208B70008002300B501BA
:101F960008000330200052020318ED2F5208F0000B
:101FA600F101F035F10DBD30700784009030713DC0
:101FB6008500003F2300B300013FB40033088400CE
:101FC600340885000008F000F1017008B6007108B9
:101FD600B70008002300B50108002300B50108007A
:101FE60020005308013A03198C2F033A0319962F40
:101FF600013A0319CC2FF02F080009340234433478
:102006000034023401340034C03432340934043428
:10201600003400340134023402340134003405340F
:1020260024340034103401340434243402340234A9
:1020360005342434063400340134053424340134A0
:102046000034013407340534813403340834003451
:102056000234093404340134003402340A340034BE
:10206600003400340734053402340234403400347A
:1020760000340734053482340234403400340034EA
:1020860034340334433400344434003443340034A9
:102096002034003452340034533400342D340034A8
:1020A60032340034333400343234003420340034D3
:1020B600453400346D340034753400346C340034E7
:1020C6006134003474340034693400346F340034BD
:1020D6006E34003420340034443400346534003423
:1020E6006D3400346F340034343403344D340034EA
:1020F6006934003463340034723400346F3400348D
:102106006334003468340034693400347034003485
:1021160020340034543400346534003463340034DD
:10212600683400346E3400346F3400346C34003458
:102136006F3400346734003479340034203400348A
:10214600493400346E340034633400342E340034A1
:1021560012340134003402340234003400340834BA
:10216600D83404340A3400340034013401340234DF
:1021760000340134C334903477349034433490348B
:0C21860004340334093404340034903471
:020000040001F9
:04000E00E4C1CFFF7B
:00000001FF
