:040000008031122811
:100008007E14803120007F082100EB0081316B21B4
:1000180021006B082000FF007E10090080311428A1
:100028002100E001E101E201E301E401E501220030
:10003800ED01EE01EF01A03084000130850047306A
:100048008731F42780312030840002308500123057
:100058008731F4278031A030840002308500403099
:100068008731F42780312030840003308500403008
:100078008731F4277E1020008431802C2000520321
:10008800031D5A2850081F39003A031D5A28230017
:10009800B517033020005106031D58280130E6002B
:1000A80066082300DC005A282300DC0120005208DF
:1000B800031D080050081F39023A031D08005408A0
:1000C8000F39003A0319080054080F39E6000330C5
:1000D800660203180800203022006E06031D08007F
:1000E8002300B5172000D41B882854080F390907A6
:1000F800AD3E860001308700403FEB00413FEC00F9
:1001080054080F39C03E962854080F390907A73EEE
:10011800860001308700403FEB00413FEC00540867
:100128000F39C33E8600013087000108E6006608E3
:10013800EA006A18A928FB30E600FF30E7006B08E0
:100148006605EB006C086705AE2804306B04EB000D
:1001580000306C04EC00D41BBD2854080F39090783
:10016800AD3E8600013087006B08C03F6C08C13F78
:10017800C82854080F390907A73E860001308700B0
:100188006B08C03F6C08C13F03305106031DEA28C5
:100198006B0886006C088700811FDF28D41BD828CD
:1001A80054080F39C03EDB2854080F39C33E860077
:1001B8000130870081146B0886006C0887000115E0
:1001C8006B0886006C0887008117080004306B06EE
:1001D800EB0000306C06EC006B0886006C088700AA
:1001E800811F13297F30E6006B0886006C088700A2
:1001F800660881056B0886006C08870001170030C7
:10020800E1000530E0006C08E3006B08E200023012
:10021800E4000030E5008A31C1228031192920002C
:100228006B0886006C0887000117043020006B06F5
:10023800EB0000306C06EC00EA1828296B088600F1
:100248006C088700811F4D29D41B2E2954080F39AB
:10025800C03E312954080F39C33E8600013087005B
:1002680081103B30E6006B0886006C088700660842
:1002780081050030E1000530E0006C08E3006B0800
:10028800E2000230E4000030E5008A31C12280310A
:1002980056293B302000E6006B0886006C08870072
:1002A80066088105200054080F39983EE600E701EA
:1002B8000E30E73D6608E8006708E900FE30E60012
:1002C800680886006908870066088105080022001A
:1002D8006E03031D7B293D008E1A7B2990011214A1
:1002E800121602302100E90069082200EE003D00E4
:1002F8001019121D8829FB302100E90069083D000A
:1003080090058931EA2181313D008E1C8E2920001B
:10031800121108001018121CA1298331D22381312F
:10032800210012150430E90069082200EE00FE30B1
:100338002100E90069083D009005101A121EA7293E
:100348008931AB2181313D00101FD129121FBC29F1
:1003580073302000E0000030E1000030E20000309F
:10036800E3000130E4000030E5008A31C122813128
:10037800BF302100E90069083D00900589315D2101
:100388008131230058080319CB290130D8025808B5
:10039800031DD1298F310F2781313D00901A921EFC
:1003A800D8298A312D2281313D009018921CEE29DE
:1003B800FF302000E0007F30E1000030E200003034
:1003C800E3000130E4000030E5008A31C1228131C8
:1003D8003D009301043022006E020318F629200024
:1003E800121108003D00921D4F2A2000EF01043031
:1003F8006F0203184F2A3D00901D4F2A0F08210055
:10040800E9006908E500650CE900E90C690C0F3999
:10041800EA006A082300DA00F7302100E9006908D9
:100428003D009005210065191D2A23005A08C03E89
:10043800202A23005A08C33E86000130870001089D
:1004480001392100E9000130E90601086906FE3991
:100458006906810023005A08031D362A8C31662458
:100468008131452A72302000E0000030E100E5309B
:10047800E2000030E3000030E400E5008A31C122E8
:10048800813101302100E90069082000EF070430BC
:100498006F02031CFF29200012110800210012110D
:1004A8002300460847040319622A460886004708BD
:1004B8008700811F622A21001215080003302100DD
:1004C80062060319E2016208031D6C2A121508006E
:1004D80002306206031D8B2A2200E001E00A003088
:1004E800E1000030E200E30102308631ED2682317E
:1004F800220061082300C700220060082300C6000C
:1005080003302200EB006B082100E200172B620386
:10051800031D172B413023005002031C952A40303D
:10052800962A50082200EB006B082300E8006803B5
:10053800FF3A50072200EB006B082300D000A030E0
:100548002200EB006B082300CA0068082200EB00B9
:100558006B082300E7004F080319CE2AED2A4C0840
:1005680086000230870001082200EB0023004A08B9
:100578008600870122006B0881000130EB006B08C0
:100588002300CA0701302200EB006B082300CC07C8
:100598000130E70267080319F02AB32A4C088600DD
:1005A8000230870001082200EB0023004A08860079
:1005B800870122006B0881000130EB006B082300E3
:1005C800CA0701302200EB006B082300CC0701307A
:1005D800E7026708031DD22A5008031DFF2A40308E
:1005E8006806031DF92A0230FA2A03302200EB00BC
:1005F8006B082100E2002200E001E00AA030E100DF
:100608000030E200230068082200EB006B08E300DA
:1006180002308631ED26220061082300C70022003F
:1006280060082300C60021001215080021001211DD
:100638003D009301900198010E302200E2009930AC
:10064800E100E3010230630203183B2B61088600D6
:100658006208870081010130E1070030E23D013086
:10066800E0006008E30702306302031C2A2B1630FF
:100678003D0091009F3097007B3092002200E401FA
:100688000C3064020318612B6408E0000130E03587
:10069800FF3E031D4B2B6035203E8600870100304E
:1006A800C03F0030C13FC23FC33F0130E000600897
:1006B800E4070C306402031C482B3D000E1796011A
:1006C8000E120E13F7302200E00060083D0090057E
:1006D8002300B501A201A301A4013D009019662BD6
:1006E80001302200E00060082300D600013022001B
:1006F800E00060082300D500D401D301DB0122000B
:10070800E401033064020318AD2B6435A73E86006C
:10071800013087000030C03FC13F6435AD3E8600E0
:10072800013087000030C03FC13F6408C33E8600E7
:100738000130870081016408C03E860001308700CF
:1007480081010130E0006008E40703306402031C03
:10075800892B28302300A7000030A80016303D0060
:10076800980000302000A3005030A2000830A100FB
:1007780004302200E00060082000A000A01722003A
:10078800EF0100302300BF000030BE000030BD0084
:100798000030BC00D2012200EE0108002100121135
:1007A8003D009301900198010E30F2009930F1005C
:1007B800F301023073020318F22B710886007208E5
:1007C800870081010130F1070030F23D0130F0006F
:1007D8007008F30702307302031CE12B16303D004A
:1007E80091009F3097007B309200F4010C30740226
:1007F8000318172C7408F0000130F035FF3E031D74
:10080800012C7035203E860087010030C03F003043
:10081800C13FC23FC33F0130F0007008F4070C30FD
:100828007402031CFE2B3D000E1796010E120E13C8
:10083800F730F000700890052300B501A201A3016C
:10084800A4013D0090191C2C0130F0007008230011
:10085800D6000130F0007008D500D401D301DB01C7
:10086800F4010330740203185D2C7435A73E86002A
:10087800013087000030C03FC13F7435AD3E86006F
:10088800013087000030C03FC13F7408C33E860076
:100898000130870081017408C03E8600013087005E
:1008A80081010130F0007008F40703307402031C62
:1008B800392C28302300A7000030A80016303D004E
:1008C800980000302000A3005030A2000830A1009A
:1008D8000430F0007008A000A0172200EF010030DB
:1008E8002300BF000030BE000030BD000030BC0057
:1008F800D2012200EE010800003089312E21843116
:1009080083311A23843189318F2184318A31F92244
:10091800843100302300E1000030E0000430DF00C3
:10092800B030DE008831F3208431E03021009E00B1
:100938009F019B019C01951323000E158E15210024
:100948008E150E158D1320008D1721006208031DCA
:10095800282D20008D1740302300E9006908220067
:10096800EB0020308C31BD2484312300EA006A0872
:100978002400B60036080319282D4D30260020061D
:10098800031D282D20008D1321001D0883391838D8
:100998009D001D140A30890BCF2C003221009D14B4
:1009A8009D18D42C1C082400B50021001B08240025
:1009B800B40021001D0883391C389D001D140A301D
:1009C800890BE42C003221009D149D18E92C1C0889
:1009D8002400B80021001B082400B70034092300B4
:1009E800E900240035092300EA00E90A0319EA0AA4
:1009F80024003708230069072400B20038082300C0
:100A08006A3D2400B30037082300E900690825007F
:100A1800A000240038082300E90069082500A10087
:100A280002302300E90069082200E000A030893183
:100A3800752184312500210889310621843125005A
:100A48002008893106218431823152228431A92C2F
:100A58002100640886008701413FF5007508F2000F
:100A6800F301730823002402031D3C2D720823029E
:100A78000318422D2308F2007208F5007508F200E9
:100A8800F3017208A3027308A43BF4017508740209
:100A98000318632D7408583E860087010108F20088
:100AA8002008860001308700720881000130F200BA
:100AB8007208A0070130F2007208F4074A2D2308D3
:100AC800240403199E2D21006008013EF200003025
:100AD800613DF300720886007308870008308100C2
:100AE8005830F2000030F300600886006108870083
:100AF80042317208C03F7308C13F6408860087010D
:100B0800011B922D6008860061088700483081002B
:100B18006008860061088700811708006008860061
:100B28006108870008308100600886006108870036
:100B38008117080021006008013EF2000030613D85
:100B4800F30072088600730887000830810050306F
:100B5800F2000030F3006008860061088700423127
:100B68007208C03F7308C13F6008860061088700AB
:100B7800043081006008860061088700811723001F
:100B880025082608A2135708031D08008F310F27D0
:100B980008003D000E122300B51B152EA21FE32DE1
:100BA8000230F50075082100E30023005308031DF7
:100BB800DF2D8D3118252300D501D601080021002D
:100BC8006008013EF5000030613DF60075088600BA
:100BD80076088700083081005030F5000030F600B4
:100BE800600886006108870042317508C03F7608B2
:100BF800C13F60088600610887000C3081006008EA
:100C080086006108870081172300270886002808C6
:100C1800870004308100270886002808870081178C
:100C280008002000D01F2D2E0130F5007508210086
:100C3800E30023005408031D242E8D311825853127
:100C48002300D501D6015708031D08008F310F274F
:100C580008000230F50075082100E3006008013E35
:100C6800F5000030613DF6007508860076088700BB
:100C7800083081005030F5000030F600600886002A
:100C88006108870042317508C03F7608C13F600897
:100C980086006108870004308100600886006108CA
:100CA800870081172300D501D6015708031D0800C6
:100CB8008F310F2708002300B5170E302000E800F9
:100CC8009930E700E9010230690203187C2E6708B1
:100CD80086006808870081010130E7070030E83D99
:100CE8000130E6006608E90702306902031C6B2E32
:100CF8002030F0000030F1000030F200F300303016
:100D0800F4000030F5008931452186313D000E1789
:100D18002000EA0103306A020318A62E6A08C33EBF
:100D280086000130870081016A08C03E86000130D4
:100D3800870081010130E6006608EA0703306A028D
:100D4800031C922EE530F0000130F1000030F20073
:100D5800F3000230F4000030F50089314521863176
:100D68003D000E1328302300A7000030A8002030D3
:100D78002000E60066082100E4006408E000FF396E
:100D8800031D0030E10020005208E600660822003A
:100D9800EF006F08031DD72E10302000E60066080C
:100DA8002200EE00080000302000E1000130E000E1
:100DB8006F30E2000130E3000130E4000030E5006C
:100DC8008A31C12220302000E60066082200EE00A9
:100DD80008002200E80060080319FB2E6835A73ECA
:100DE800860001308700403FE900413F032F683506
:100DF800AD3E860001308700403FE900413FEA00F0
:100E080069086A04031D0B2FE001E1010800FF30A7
:100E18006105E4007F306205E500690886006A081C
:100E2800870042316408C03F6508C13F6908013E38
:100E3800E40000306A3DE500640886006508870024
:100E4800630881004030E400690886006A0887006A
:100E580064088105690886006A08870081156908A1
:100E680086006A088700811760080319542F6835BF
:100E7800A73E860001308700403FE400413FE5007F
:100E880004306406E60000306506E7006835A73ED2
:100E98008600013087006608C03F6708C13F6C2F95
:100EA8006835AD3E860001308700403FE400413F91
:100EB800E50004306406E60000306506E7006835A2
:100EC800AD3E8600013087006608C03F6708C13F15
:100ED8006A08E1006908E0000800F80070080319D2
:100EE8007E2F7835A73E860001308700403FF90005
:100EF800413F862F7835AD3E860001308700403F60
:100F0800F900413FFA0079087A04031D8E2FF00199
:100F1800F1010800FF307105F4007F307205F5001B
:100F2800790886007A08870042317408C03F75083E
:100F3800C13F7908013EF40000307A3DF50074089D
:100F4800860075088700730881004030F40079082E
:100F580086007A08870074088105790886007A086F
:100F680087008115790886007A088700811770083C
:100F78000319D72F7835A73E860001308700403FF8
:100F8800F400413FF50004307406F60000307506A1
:100F9800F7007835A73E8600013087007608C03F05
:100FA8007708C13FEF2F7835AD3E860001308700C6
:100FB800403FF400413FF50004307406F60000306D
:100FC8007506F7007835AD3E860001308700760853
:100FD800C03F7708C13F7A08F1007908F00008009F
:0C0FE800640080010131890BF52F0034FA
:101000008D31F82D8D31FB2D8E31342E8D31FB2D10
:101010008E31342E8D31DB2D8D31E42D8E311B2E12
:101020008D31EA2D8D31E72D8D31FE2D8E310E2E35
:041030008E31342E9B
:1011E60021000D130D168E130E13200091112100F0
:1011F600911124009516151614171508F0390138A3
:101206009500941308002200E20024001108220031
:10121600E0006008E100200091112200620824002D
:1012260091002000911D14290E150800F0002229B6
:10123600FC3021009900903027009B0008007008C0
:10124600003A03191B29013A03192D29033A0319F8
:101256002D292D2908002200E0003829FC30210024
:101266009900903027009B00080022006008003A91
:1012760003193129013A03194429033A0319442968
:10128600442908007108F7007008F6000130F402DE
:101296000030F53B740A0319750A0319080076082D
:1012A600860077088700720881000130F607003053
:1012B600F73D492901302300BC070030BD3D003011
:1012C600BE3D0030BF3D5B08031D08000130F00045
:1012D6007008D2075208031D0800FF30F00070089E
:1012E600D20008002200E200210012116208031D4C
:1012F6008D2922006208E10061082300CC0022004B
:101306006008E10061082300D000CF01CF0A210068
:10131600E201E20A1215080022006E08031D080009
:101326003D008E019201163091009F3097007B3070
:101336009200210012150B178B173D008E19A52957
:101346008E15A02901302200E0006008EE0008009A
:101356003D001215EF302000E60066083D009005BE
:101366008E1401302000E60066082300DB00D2015F
:1013760075302000E0000030E1000030E20000306F
:10138600E3000030E400E5008A31C1220800FC00D9
:10139600771DD229F0017C088B3138238931F71C5F
:1013A600D929F001F00A7C088B3138237C08983E55
:1013B600F800F9010E30F93D7808FA007908FB00CB
:1013C6007A0886007B0887007708810008002300DA
:1013D600DB0174302000E0000030E1000030E20064
:1013E6000030E3000030E400E5008A31C122893193
:1013F6003D008E101211101D072AFB302000E6005A
:1014060066083D009005FE292300D201080022004F
:10141600EC00671D132AE0016C088B317A238A31B0
:101426002200E71C1B2AE001E00A6C088B317A23B4
:1014360022006C08983EE800E9010E30E93D680894
:10144600EA006908EB006A0886006B0887006708EF
:10145600810008003D00181C4F2A21006408860000
:10146600870180300106031D4D2A230027088600C8
:101476002808870084300106031D4D2A0C30F00031
:1014860021006408860087017008810064088600D0
:10149600870181173D001810DF30F00070089005B5
:1014A600080000302300E1000030E0004B30DF0090
:1014B6000030DE00E201E3010830FD007D08E400B3
:1014C600D1011A30FD007D08F70001308931CA21AB
:1014D6008A311E30FD007D08F70002308931CA21AD
:1014E6008A31F0012030F1000130F2004030FD0079
:1014F6007D08F30002308731712771082300C90087
:101506007008C800C601C7012100E20108000230C8
:1015160021006306031D922A85312C25080021002F
:10152600E30123005908031DBE2A21006008013E7D
:10153600F6000030613DF7007608860077088700E0
:10154600083081005030F6000030F7006008860051
:101556006108870042317608C03F7708C13F6008BE
:101566008600610887000C308100600886006108EB
:101576008700811708002300D9010800D02A01300E
:1015860089311921080002308931192108008A3170
:10159600542208008D317425080020006108003AA5
:1015A6000319D92A7F3A0319F32AF82A6008013A5F
:1015B6000319CA2A033A0319F82A013A0319CD2A4C
:1015C600063A0319F82A773A0319F82A013A031951
:1015D600F82A073A0319C62A013A0319C22AF82A31
:1015E6006008FF3A0319F82AF82A08000030230099
:1015F600E1000030E0004B30DF000030DE00E201A9
:10160600E3010830E7006708E400D1011A30E7007B
:1016160067082200E70001308A310A228A311E302B
:101626002300E70067082200E70002308A310A2219
:101636008A312200E0012030E1000130E200403032
:101646002300E70067082200E30002308631ED261A
:10165600220061082300C900220060082300C80098
:10166600C601C7012100E2010800F5002030F100A3
:101676007108F6007008F1000130F135890B402B36
:101686007508F2000130F235FF3E031D462B723518
:101696007107F3000130F335FF3E031D4E2B733502
:1016A600F4007408F607760886008701811370082F
:1016B600031D672B7535AD3E860001308700760821
:1016C600C03F0030C13F702B7535A73E8600013004
:1016D60087007608C03F0030C13F76088600870144
:1016E60001137608043E86008701011708002200D0
:1016F600E5002030E1006108E6006008E100013005
:10170600E135890B832B6508E2000130E235FF3EA7
:10171600031D892B62356107E3000130E335FF3E87
:10172600031D912B6335E4006408E607660886000E
:10173600870181136008031DAA2B6535AD3E86001F
:10174600013087006608C03F0030C13FB32B6535C6
:10175600A73E8600013087006608C03F0030C13FC3
:1017660066088600870101136608043E8600870125
:10177600011708002200ED012300D701D401D3018F
:10178600D9012100E3017F302000EE002300270865
:1017960086002808870020006E0881050430230093
:1017A6002706A70000302806A8007F302000EE009C
:1017B6002300270886002808870020006E08810578
:1017C600043023002706A70000302806A8007F3033
:1017D6002000EE00210060088600610887002000D6
:1017E6006E0881052300B501B601B701A201A30168
:1017F600A4018D31D3258B3100302000E100033068
:10180600E0000030E2000030E3000030E400E500D4
:101816008A31C1228B318531CD2508002000D801BF
:10182600D9014D2C2300B51723005C03031D592C49
:101836002000D814592C2300B517592C2300B517AE
:101846002000D41B312C54080F390907AD3E860001
:1018560001308700403FF100413F3B2C54080F39CF
:101866000907A73E860001308700403FF100413F4F
:10187600F2007108860072088700811F592C7108D2
:10188600860072088700011D592C0130F00070088F
:10189600D800592C50081F39003A0319152C013A63
:1018A60003191E2C033A0319212C592C2300B51FAA
:1018B60008005830B3000030B40035140230F00090
:1018C6007008B60008002D302100E60066082300E7
:1018D600D80021006508FD39031DB22C65363F3955
:1018E600E6000130E635FF3E031D752C6635203EC9
:1018F600E7006708E4006408E000FF39031D0030D4
:10190600E10004306006E00000306106E100640892
:1019160086008701010C890C0F390D3A031DAF2C87
:1019260050308600870121006408023E840085014C
:10193600003FE600013FE70066088400670885006F
:101946000830E80068080319AC2C12001E00E80BEA
:10195600A82C8B31BD2308008A318A220800FD306D
:1019660021006505E60004306606031D08008E3179
:101976009F2608002200EC002300D10148084904F4
:101986000319CB2C4808860049088700811B162DB1
:101996004808860049088700413122006B08010289
:1019A6000318E02C230048088600490887004131C7
:1019B6000108E70067082200EB002300D10122009E
:1019C6006B08230051020318FF2C5108203E8600A5
:1019D600013087000108E700510822006C07230048
:1019E600E800680886000330870067088100013038
:1019F600E7006708D107E22C2200E0012030E10071
:101A06000130E20040302300E70067082200E300CF
:101A160002308631ED26220061082300C90022002B
:101A260060082300C800510808002300D401D30130
:101A3600023021006306031D452D6008013EF300B8
:101A46000030613DF4007308860074088700083092
:101A560081005830F3000030F40060088600610809
:101A6600870042317308C03F7408C13F6008860092
:101A76006108870048308100600886006108870099
:101A8600811708002300370820005702031D4F2D39
:101A960023003608200056020318582D5708230045
:101AA600B700200056082300B6008E313526583080
:101AB600F3000030F400230027088600280887007A
:101AC60042317308C03F7408C13F270886002808C2
:101AD600870048308100270886002808870081177C
:101AE6000800200050081F39013A031D0800500E57
:101AF600890C0339013A031D080054080319C02D47
:101B06005403031D0800C02D2A302300B300023001
:101B1600B4000030B7000830B6003514B517080019
:101B26002A302300B3000230B400B51708002000A5
:101B360057082300A400200056082300A300DE3027
:101B4600F0007008A000A501A601A2170800DE306B
:101B56002300B3000130B4000030B7000730B600F0
:101B6600C130F0007008B500080020005208F000EF
:101B760070082300CE00B517080020005108003A6F
:101B86000319872D013A0319932D213A03199A2D2A
:101B9600013A0319AA2D033A0319B82DD22D0800CC
:101BA6002000500E890C0339003A031D0800292E27
:101BB6002300B51708302000ED006D082200EE0066
:101BC60008008F318127080086315F2608006F30B4
:101BD6002300B3000130B400351401302000ED00BD
:101BE6006D082300B600B51708008C3111240800D3
:101BF60080314220080020005408E53E2300B3004F
:101C06000130B400351401302000ED006D082300CA
:101C1600B600B51708002300B51720005208ED00DE
:101C26005408E53E8600013087006D0881000800F3
:101C36000030E1000230E0000030E2000030E30056
:101C46000030E400E5008A31C12208002000510876
:101C560084000D3004020318080088310435003E64
:101C6600820008000830F0007008F20000302300FF
:101C760037020830031936020318522E3608F000D0
:101C86007008F20022006D08031D4B2E01304F2E06
:101C96006D03031D522E0230F0007008ED0072082D
:101CA600F000F10170082300B6027108B73B27085F
:101CB600013EF0000030283DF100700886007108F2
:101CC6008700720881005830F0007008DD00351C6E
:101CD600822E9B2E33088400340885000008F0000D
:101CE6005D0886008701700881000130B307003067
:101CF600B43D0130F0007008DD070130F2027208D1
:101D0600031908006D2E3308840034088500000886
:101D1600F0005D0886008701700881000130B30776
:101D26000030B43D0130F0007008DD070130F202EA
:101D3600720803190800862E230027088600280843
:101D460087000030011B0130F50004302706A7008C
:101D560000302806A800083022006E06031DC22E99
:101D6600200052087F393D00960016080319BD2E43
:101D76001030BE2E0430F30073082200EE0021005E
:101D86006303031D062F5830F3000030F4002300D0
:101D9600270886002808870042317308C03F740868
:101DA600C13F8E3135268E31023022006D06031D6D
:101DB600E92E2300270886002808870004308100C2
:101DC6002708860028088700811708007508031D64
:101DD600F92E23002708860028088700483081004E
:101DE600270886002808870081170800230027088F
:101DF6008600280887000830810027088600280802
:101E06008700811708002300A21F0C2F250826082B
:101E1600A2132100E301080023005608031D080051
:101E26000130F0007008D6005508031D0800013087
:101E3600F0007008D500023021006306031D362F1E
:101E460023002708860028088700413181012708DA
:101E56008600280887004830810027088600280861
:101E660087008117080021006303031D0800230073
:101E7600D9010830F0002100640A86008701700845
:101E860081005030F0000030F1006408023E860008
:101E960087017008C03F7108C13F0430F000640834
:101EA6008600870170088100640886008701811713
:101EB6000130F00070082300D90021006008013EBF
:101EC600F0000030613DF10070088600710887005F
:101ED600083081005030F0000030F10060088600C4
:101EE6006108870042317008C03F7108C13F600831
:101EF600860061088700803081000800803020005D
:101F06005006031D0800C030F00070082300B5001D
:101F1600F32FAB302300B3009030B4000030B7008D
:101F26001230B600080020005208031DC92F5208BF
:101F3600F000F101F035F10DC730700784009030E4
:101F4600713D8500003F2300B300013FB400340813
:101F5600F1003308F000023070078400710803189E
:101F6600710A85000008F2007208B6003408F10014
:101F76003308F00003307007840071080318710AF3
:101F860085000008F2007208B70008002300B501BA
:101F960008000330200052020318ED2F5208F0000B
:101FA600F101F035F10DBD30700784009030713DC0
:101FB6008500003F2300B300013FB40033088400CE
:101FC600340885000008F000F1017008B6007108B9
:101FD600B70008002300B50108002300B50108007A
:101FE60020005308013A03198C2F033A0319962F40
:101FF600013A0319CC2FF02F080009340234433478
:102006000034023401340034C03432340934043428
:10201600003400340134023402340134003405340F
:1020260024340034103401340434243402340234A9
:1020360005342434063400340134053424340134A0
:102046000034013407340534813403340834003451
:102056000234093404340134003402340A340034BE
:10206600003400340734053402340234403400347A
:1020760000340734053482340234403400340034EA
:1020860034340334433400344434003443340034A9
:102096002034003452340034533400342D340034A8
:1020A60032340034333400343234003420340034D3
:1020B600453400346D340034753400346C340034E7
:1020C6006134003474340034693400346F340034BD
:1020D6006E34003420340034443400346534003423
:1020E6006D3400346F340034343403344D340034EA
:1020F6006934003463340034723400346F3400348D
:102106006334003468340034693400347034003485
:1021160020340034543400346534003463340034DD
:10212600683400346E3400346F3400346C34003458
:102136006F3400346734003479340034203400348A
:10214600493400346E340034633400342E340034A1
:1021560012340134003402340234003400340834BA
:10216600D83404340A3400340034013401340234DF
:1021760000340134C334903477349034433490348B
:0C21860004340334093404340034903471
:020000040001F9
:04000E00E4C1CFFF7B
:00000001FF
